:060000000A128A11F02F24
:1002360078340034831203138C11700893008C19E0
:1002460008002229831203138C1183160313111439
:1002560083128C1908002B29831203138C11831621
:100266000313111583128C1908003529F300F201C6
:10027600731C41297008F1007108F2070310F00D94
:100286000310F30C7308031D3B2972080800F401E0
:10029600F501701C54297208F4070318F50A73084F
:1002A600F50701300310F20DF30DFF3E031D55292E
:1002B60001300310F10CF00CFF3E031D5C297008A1
:1002C6007104031D4C297508F1007408F00008003C
:1002D600F4000A128A1125210A128A1183120313C5
:1002E6003F08F1003E08F0000A128A111D210A1289
:1002F6008A110030F000F1000A128A111D210A123B
:100306008A117408F200F3017208F0007308F10014
:100316000A128A111D210A128A110A128A112F2124
:100326000800AE300A128A116B210A128A118D302A
:100336000A128A116B210A128A1114300A128A11C2
:100346006B210A128A1120300A128A116B210A12B5
:100356008A1100300A128A116B210A128A11A13001
:100366000A128A116B210A128A11C8300A128A11DE
:100376006B210A128A11DA300A128A116B210A12CB
:100386008A1112300A128A116B210A128A118130DF
:100396000A128A116B210A128A119F300A128A11D7
:1003A6006B210A128A11AF300A128A116B210800DA
:1003B6008312031323082204210420040319202A8C
:1003C600A901A90AA31BF5290130A8000310A00D55
:1003D600A10DA20DA30DA80BE9290130A80028083C
:1003E600A907E52923082702031D032A2208260256
:1003F600031D032A21082502031D032A20082402BF
:10040600031C132A2008A4022108031C210FA5029D
:100416002208031C220FA6022308031C230FA7028F
:1004260001300310A30CA20CA10CA00CFF3E031D6F
:10043600142A0130A902031DF5292708A30026085E
:10044600A2002508A1002408A0000800F701083032
:100456007702031808007708B03E0A128A116B214A
:100466000A128A1100300A128A116B210A128A11A5
:1004760010300A128A116B210A128A110A128A1185
:1004860025210A128A11831203133F08F1003E0840
:10049600F0000A128A111D210A128A114030F0005A
:1004A6000030F1000A128A111D210A128A11F60182
:1004B6008030760203186F2A0030F000F1000A122D
:1004C6008A111D210A128A110130F5007508F607F6
:1004D60080307602031C5F2A0A128A112F210A1223
:1004E6008A110130F5007508F7072A2A0030FC004A
:1004F6000030FB000030FA000030F9007308720487
:10050600710470040319CE2AFD01FD0AF31B992A12
:100516000130F8000310F00DF10DF20DF30DF80B9C
:100526008D2A0130F8007808FD07892A0130F80085
:100536000310F90DFA0DFB0DFC0DF80B9B2A730841
:100546007702031DB02A72087602031DB02A7108CD
:100556007502031DB02A70087402031CC12A7008B4
:10056600F4027108031C710FF5027208031C720F66
:10057600F6027308031C730FF70279140130031097
:10058600F30CF20CF10CF00CFF3E031DC22A0130F5
:10059600FD02031D992A7C08F3007B08F2007A0805
:1005A600F1007908F000080083120313A000203040
:1005B6000A128A116B210A128A1101300A128A1153
:1005C6006B210A128A1121300A128A116B210A1232
:1005D6008A110D30F8007808F00077080A128A119F
:1005E60039210A128A110A128A116B210A128A11FA
:1005F6000D30F8007808F00077080A128A113921C0
:100606000A128A11093E0A128A116B210A128A11EC
:1006160022300A128A116B210A128A1176080A12EE
:100626008A116B210A128A117608013E0A128A1172
:100636006B210A128A110A128A1125210A128A11BD
:10064600831203133F08F1003E08F0000A128A11D4
:100656001D210A128A114030F0000030F1000A1202
:100666008A111D210A128A1183120313A301053070
:1006760023020318D42B2008E03EF000FF300318B5
:100686000030F1000530F2000030F3000A128A1142
:100696004A210A128A118312031323087007F800ED
:1006A6000030031801307107F90089307907FF001F
:1006B600DE30780784000318FF0A0A128A15002024
:1006C6000A128A11FA007A08A400A201A101241FC5
:1006D600702BC030F8007808A207A41E762B3030A5
:1006E600F8007808A207241E7C2B0C30F800780846
:1006F600A207A41D822B0330F8007808A207241D48
:10070600882BC030F8007808A107A41C8E2B303047
:10071600F8007808A107241C942B0C30F800780800
:10072600A1072108F800F9017808F0007908F1001E
:100736000A128A111D210A128A1183120313220832
:10074600F800F9017808F0007908F1000A128A1118
:100756001D210A128A11831203132108F800F901D8
:100766007808F0007908F1000A128A111D210A1290
:100776008A11831203132208F800F9017808F000A1
:100786007908F1000A128A111D210A128A11013014
:10079600F800780883120313A30705302302031C0D
:1007A6003E2B0A128A112F210A128A1120300A12B0
:1007B6008A116B210A128A1100300A128A116B21E2
:1007C600080010308316031385001F308700F830A9
:1007D60081008312031390010B309700403095007F
:1007E6009C30960083160313941714130930930054
:1007F60028308312031394008316031391010230E9
:1008060083120313AC000430AB00BA30AA00AA0B63
:100816000A2CAB0B0A2CAC0B0A2C00000A128A110C
:1008260094210A128A110A128A1129220A128A119D
:1008360083120313B801B80AAE01AF013230AA0021
:100846002A08B0008E018F01101481010B113008A7
:1008560003193C2C0B1D362C0130AE070318AF0ACA
:100866000030AF070B110C1D2A2C0C110130B00201
:100876002A2C10102E08AA002F08AB00AC01AD01DF
:1008860008300310AA0DAB0DAC0DAD0DFF3E031DD8
:10089600442C01082A07BA002B0803182B0F031053
:1008A600BB002C0803182C0F0310BC002D080318DE
:1008B6002D0ABD000030F3000F30F2004230F10087
:1008C6004030F0003D08F7003C08F6003B08F50014
:1008D6003A08F4000A128A1179220A128A1170085B
:1008E60083120313AA002A08B7000030A3000030C1
:1008F600A2000030A1000A30A0000030F300013051
:10090600F2008630F100A030F0003D08F7003C0808
:10091600F6003B08F5003A08F4000A128A1179221B
:100926000A128A11730883120313A7007208A6001D
:100936007108A5007008A4000A128A11DB210A12A8
:100946008A11831203132008AA002A08B600003071
:10095600A3000030A2000030A1000A30A000003041
:10096600F3000030F2002730F1001030F0003D08AF
:10097600F7003C08F6003B08F5003A08F4000A12B6
:100986008A1179220A128A11730883120313A700A7
:100996007208A6007108A5007008A4000A128A1140
:1009A600DB210A128A11831203132008AA002A08DF
:1009B600B5000030A3000030A2000030A1000A30CC
:1009C600A0000030F3000030F2000330F100E83000
:1009D600F0003D08F7003C08F6003B08F5003A0831
:1009E600F4000A128A1179220A128A1173088312F4
:1009F6000313A7007208A6007108A5007008A400DA
:100A06000A128A11DB210A128A11831203132008A3
:100A1600AA002A08B4000030A3000030A20000306B
:100A2600A1000A30A0000030F3000030F2000030D0
:100A3600F1006430F0003D08F7003C08F6003B0882
:100A4600F5003A08F4000A128A1179220A128A116C
:100A5600730883120313A7007208A6007108A50085
:100A66007008A4000A128A11DB210A128A11831265
:100A760003132008AA002A08B3000030A3000030A0
:100A8600A2000030A1000A30A0000030F3000030C0
:100A9600F2000030F1000A30F0003D08F7003C0893
:100AA600F6003B08F5003A08F4000A128A1179228A
:100AB6000A128A11730883120313A7007208A6008C
:100AC6007108A5007008A4000A128A11DB210A1217
:100AD6008A11831203132008AA002A08B2000030E4
:100AE600A3000030A2000030A1000A30A0003D089B
:100AF600A7003C08A6003B08A5003A08A4000A1275
:100B06008A11DB210A128A11831203132008AA0014
:100B16002A08B1000A128A1129220A128A110730FC
:100B260083120313AA002A08B90002303902031CF3
:100B3600C62D3908FF3E313E840083130008031991
:100B4600A82D38080319A82DB8013808031DBE2D95
:100B5600F601F60A3903FF3A073EAA002A08F7000B
:100B66003908FF3E313E84000008303E0A128A11E1
:100B7600D7220A128A11013083120313B9020230F6
:100B8600390203189C2DF601F60A0630AA002A0837
:100B9600F7003108303E0A128A11D7220A128A114A
:100BA600F601F60A083083120313AA002A08F70092
:100BB60048300A128A11D7220A128A11F601F60A59
:100BC600093083120313AA002A08F7007A300A12A2
:100BD6008A11D7220A128A1183120313B801B80A9E
:100BE6003D08031D2C2E3C08031D2C2E03303B0212
:100BF600031D012EE8303A02031D012E03182C2E88
:100C06003D08F3003C08F2003B08F1003A08F0000A
:100C16000030F7000F30F6004230F5004030F400A7
:100C26000A128A1179220A128A117308831203138F
:100C3600BD007208BC007108BB007008BA00053020
:100C4600AA002A08F6000830AB002B08F70075301A
:100C5600562E831203133D08F3003C08F2003B08AE
:100C6600F1003A08F0003B30F7009A30F600CA303F
:100C7600F5000030F4000A128A1179220A128A114C
:100C8600730883120313BD007208BC007108BB0011
:100C96007008BA000530AA002A08F6000830AB0032
:100CA6002B08F7006E300A128A11D7220A128A110F
:100CB6000030F3000F30F2004230F1004030F00017
:100CC600831203133D08F7003C08F6003B08F500C5
:100CD6003A08F4000A128A1179220A128A11700857
:100CE60083120313AA002A08B7000030A3000030BD
:100CF600A2000030A1000A30A0000030F30001304D
:100D0600F2008630F100A030F0003D08F7003C0804
:100D1600F6003B08F5003A08F4000A128A11792217
:100D26000A128A11730883120313A7007208A60019
:100D36007108A5007008A4000A128A11DB210A12A4
:100D46008A11831203132008AA002A08B60000306D
:100D5600A3000030A2000030A1000A30A00000303D
:100D6600F3000030F2002730F1001030F0003D08AB
:100D7600F7003C08F6003B08F5003A08F4000A12B2
:100D86008A1179220A128A11730883120313A700A3
:100D96007208A6007108A5007008A4000A128A113C
:100DA600DB210A128A11831203132008AA002A08DB
:100DB600B5000030A3000030A2000030A1000A30C8
:100DC600A0000030F3000030F2000330F100E830FC
:100DD600F0003D08F7003C08F6003B08F5003A082D
:100DE600F4000A128A1179220A128A1173088312F0
:100DF6000313A7007208A6007108A5007008A400D6
:100E06000A128A11DB210A128A118312031320089F
:100E1600AA002A08B4000030A3000030A200003067
:100E2600A1000A30A0000030F3000030F2000030CC
:100E3600F1006430F0003D08F7003C08F6003B087E
:100E4600F5003A08F4000A128A1179220A128A1168
:100E5600730883120313A7007208A6007108A50081
:100E66007008A4000A128A11DB210A128A11831261
:100E760003132008AA002A08B3000030A30000309C
:100E8600A2000030A1000A30A0000030F3000030BC
:100E9600F2000030F1000A30F0003D08F7003C088F
:100EA600F6003B08F5003A08F4000A128A11792286
:100EB6000A128A11730883120313A7007208A60088
:100EC6007108A5007008A4000A128A11DB210A1213
:100ED6008A11831203132008AA002A08B2000030E0
:100EE600A3000030A2000030A1000A30A0003D0897
:100EF600A7003C08A6003B08A5003A08A4000A1271
:100F06008A11DB210A128A11831203132008AA0010
:100F16002A08B1000730AA002A08B90002303902AF
:100F2600031CC12F3908FF3E313E8400831300089D
:100F36000319A12F38080319A12FB8013808031D7A
:100F4600B92F0530AA002A08F6003903FF3A073EF2
:100F5600AB002B08F7003908FF3E313E840000083D
:100F6600303E0A128A11D7220A128A1101308312E0
:100F76000313B902023039020318952F0530AA006F
:100F86002A08F6000630AB002B08F7003108303E81
:100F96000A128A11D7220A128A1105308312031304
:100FA600AA002A08F6000930AB002B08F7005330D8
:100FB6000A128A11D7220A128A11153083120313D4
:100FC600AC004B30AB00D130AA00AA0BE82FAB0B1C
:100FD600E82FAC0BE82F00001B2C831203130A1218
:100FE6008A111B210A128A11BE000A128A111C21BB
:100FF600BF0083010A128A11E42BFF1B0A28831300
:101006007F1883170008840A0319FF0A08007F085F
:101016007F398A000408840A0319FF0A8200003413
:101026000034003400340034003400345F340034BB
:1010360000340034073400340734003414347F3469
:1010460014347F34143424342A347F342A3412344A
:101056002334133408346434623436344934563411
:101066002034503400340834073403340034003458
:101076001C342234413400340034413422341C34CC
:1010860000342A341C347F341C342A34083408349F
:101096003E3408340834003480347034303400343C
:1010A6000834083408340834083400340034603412
:1010B60060340034203410340834043402343E34AE
:1010C6004134413441343E34003442347F34403478
:1010D6000034723449344934493446342134413475
:1010E60049344D3433341834143412347F341034C4
:1010F600273445344534453439343C344A3449344C
:101106004934313441342134113409340734363406
:101116004934493449343634463449344934293417
:101126001E340034003414340034003400344034A7
:101136003434003400340034083414342234413456
:101146001434143414341434143400344134223432
:1011560014340834023401345934093406343E3424
:1011660041345D3459344E347C34123411341234E3
:101176007C347F3449344934493436343E3441343E
:101186004134413422347F344134413441343E3495
:101196007F3449344934493441347F34093409347D
:1011A600093401343E3441344134513473347F348C
:1011B6000834083408347F34003441347F344134F1
:1011C60000342034403441343F3401347F34083411
:1011D6001434223441347F34403440344034403473
:1011E6007F3402341C3402347F347F3404340834B0
:1011F60010347F343E344134413441343E347F34FC
:1012060009340934093406343E3441345134213426
:101216005E347F340934193429344634263449344B
:10122600493449343234033401347F3401340334CD
:101236003F344034403440343F341F34203440344B
:1012460020341F343F344034383440343F34633420
:1012560014340834143463340334043478340434D2
:1012660003346134593449344D34433400347F34C3
:1012760041344134413402340434083410342034C7
:1012860000344134413441347F340434023401346F
:101296000234043440344034403440344034003462
:1012A6000334073408340034203454345434783446
:1012B60040347F3428344434443438343834443465
:1012C60044344434283438344434443428347F3461
:1012D60038345434543454341834003408347E3496
:1012E600093402341834A434A4349C3478347F345A
:1012F6000834043404347834003444347D344034BF
:1013060000342034403440343D3400347F341034CB
:10131600283444340034003441347F3440340034BB
:101326007C3404347834043478347C34083404341B
:101336000434783438344434443444343834FC3453
:101346001834243424341834183424342434183407
:10135600FC347C34083404340434083448345434BB
:10136600543454342434043404343F34443424345C
:101376003C344034403420347C341C3420344034F3
:1013860020341C343C344034303440343C3444340F
:1013960028341034283444344C3490349034903407
:1013A6007C344434643454344C3444340034083487
:1013B6003634413400340034003400340034003410
:1013C600003400345F340034003400340734003411
:1013D6000734003414347F3414347F341434243402
:1013E6002A347F342A3412342334133408346434D0
:1013F6006234363449345634203450340034083498
:1014060007340334003400341C34223441340034AD
:101416000034413422341C3400342A341C347F34E2
:101426001C342A34083408343E3408340834003472
:1014360080347034303400340834083408340834C6
:1014460008340034003460346034003420341034FE
:101456000834043402343E344134413441343E3499
:10146600003442347F3440340034723449344934D1
:10147600493446342134413449344D3433341834F4
:10148600143412347F34103427344534453445340B
:1014960039343C344A3449344934313441342134C2
:1014A600113409340734363449344934493436342E
:1014B60046344934493429341E3400340034143453
:1014C6000034003400344034343400340034003402
:1014D6000834143422344134143414341434143497
:1014E60014340034413422341434083402340134C0
:1014F6005934093406343E3441345D3459344E345B
:101506007C341234113412347C347F3449344934F7
:10151600493436343E3441344134413422347F3404
:101526004134413441343E347F34493449344934BA
:1015360041347F3409340934093401343E344134AA
:101546004134513473347F340834083408347F34DA
:10155600003441347F344134003420344034413443
:101566003F3401347F3408341434223441347F3418
:1015760040344034403440347F3402341C34023426
:101586007F347F340434083410347F343E3441349D
:10159600413441343E347F34093409340934063445
:1015A6003E344134513421345E347F3409341934A5
:1015B60029344634263449344934493432340334E0
:1015C60001347F34013403343F34403440344034F2
:1015D6003F341F342034403420341F343F344034E9
:1015E600383440343F3463341434083414346334A8
:1015F60003340434783404340334613459344934BC
:101606004D34433400347F34413441344134023460
:101616000434083410342034003441344134413425
:101626007F34043402340134023404344034403408
:101636004034403440340034033407340834003432
:10164600203454345434783440347F342834443489
:101656004434383438344434443444342834383404
:101666004434443428347F34383454345434543471
:101676001834003408347E34093402341834A4345F
:10168600A4349C3478347F340834043404347834F5
:10169600003444347D344034003420344034403403
:1016A6003D3400347F34103428344434003400345C
:1016B60041347F34403400347C3404347834043488
:1016C60078347C340834043404347834383444347C
:1016D600443444343834FC34183424342434183430
:1016E6001834243424341834FC347C340834043458
:1016F60004340834483454345434543424340434CC
:1017060004343F34443424343C34403440342034AC
:101716007C341C342034403420341C343C34403473
:10172600303440343C34443428341034283444347F
:101736004C349034903490347C344434643454348F
:0E1746004C344434003408343634413400341A
:02400E007AFF37
:00000001FF
